{
  "contractName": "CoinCrowdExchangeRates",
  "abi": [
    {
      "constant": true,
      "inputs": [],
      "name": "decimals",
      "outputs": [
        {
          "name": "",
          "type": "uint256"
        }
      ],
      "payable": false,
      "stateMutability": "view",
      "type": "function"
    },
    {
      "constant": false,
      "inputs": [
        {
          "name": "addressAuthorized",
          "type": "address"
        },
        {
          "name": "authorization",
          "type": "bool"
        }
      ],
      "name": "setAuthorized",
      "outputs": [],
      "payable": false,
      "stateMutability": "nonpayable",
      "type": "function"
    },
    {
      "constant": true,
      "inputs": [],
      "name": "owner",
      "outputs": [
        {
          "name": "",
          "type": "address"
        }
      ],
      "payable": false,
      "stateMutability": "view",
      "type": "function"
    },
    {
      "constant": true,
      "inputs": [
        {
          "name": "",
          "type": "address"
        }
      ],
      "name": "authorized",
      "outputs": [
        {
          "name": "",
          "type": "bool"
        }
      ],
      "payable": false,
      "stateMutability": "view",
      "type": "function"
    },
    {
      "constant": false,
      "inputs": [
        {
          "name": "newOwner",
          "type": "address"
        }
      ],
      "name": "transferOwnership",
      "outputs": [],
      "payable": false,
      "stateMutability": "nonpayable",
      "type": "function"
    },
    {
      "anonymous": false,
      "inputs": [
        {
          "indexed": true,
          "name": "addressAuthorized",
          "type": "address"
        },
        {
          "indexed": true,
          "name": "authorization",
          "type": "bool"
        }
      ],
      "name": "AuthorizationSet",
      "type": "event"
    },
    {
      "anonymous": false,
      "inputs": [
        {
          "indexed": true,
          "name": "previousOwner",
          "type": "address"
        },
        {
          "indexed": true,
          "name": "newOwner",
          "type": "address"
        }
      ],
      "name": "OwnershipTransferred",
      "type": "event"
    },
    {
      "constant": true,
      "inputs": [
        {
          "name": "_currency",
          "type": "string"
        }
      ],
      "name": "readRate",
      "outputs": [
        {
          "name": "oneEtherValue",
          "type": "uint256"
        }
      ],
      "payable": false,
      "stateMutability": "view",
      "type": "function"
    },
    {
      "constant": false,
      "inputs": [
        {
          "name": "_currency",
          "type": "string"
        },
        {
          "name": "oneEtherValue",
          "type": "uint256"
        }
      ],
      "name": "writeRate",
      "outputs": [
        {
          "name": "result",
          "type": "bool"
        }
      ],
      "payable": false,
      "stateMutability": "nonpayable",
      "type": "function"
    }
  ],
  "bytecode": "0x6060604090815260008054600160a060020a033316600160a060020a031990911681178255815260016020819052919020805460ff1916909117905561046d8061004a6000396000f3006060604052600436106100825763ffffffff7c0100000000000000000000000000000000000000000000000000000000600035041663313ce56781146100875780634ea801c5146100ac578063711bf9b2146101135780638da5cb5b14610139578063b918161114610168578063c97c150514610187578063f2fde38b146101d8575b600080fd5b341561009257600080fd5b61009a6101f7565b60405190815260200160405180910390f35b34156100b757600080fd5b6100ff60046024813581810190830135806020601f8201819004810201604051908101604052818152929190602084018383808284375094965050933593506101fc92505050565b604051901515815260200160405180910390f35b341561011e57600080fd5b610137600160a060020a03600435166024351515610294565b005b341561014457600080fd5b61014c610313565b604051600160a060020a03909116815260200160405180910390f35b341561017357600080fd5b6100ff600160a060020a0360043516610322565b341561019257600080fd5b61009a60046024813581810190830135806020601f8201819004810201604051908101604052818152929190602084018383808284375094965061033795505050505050565b34156101e357600080fd5b610137600160a060020a03600435166103a6565b601281565b600160a060020a03331660009081526001602052604081205460ff16151561022357600080fd5b816002846040518082805190602001908083835b602083106102565780518252601f199092019160209182019101610237565b6001836020036101000a0380198251168184511680821785525050505050509050019150509081526020016040519081900390205550600192915050565b60005433600160a060020a039081169116146102af57600080fd5b80151582600160a060020a03167f5056a36abc1db1625034fdf114a164a0345b3ccf992fc1d51055e017375f473260405160405180910390a3600160a060020a03919091166000908152600160205260409020805460ff1916911515919091179055565b600054600160a060020a031681565b60016020526000908152604090205460ff1681565b60006002826040518082805190602001908083835b6020831061036b5780518252601f19909201916020918201910161034c565b6001836020036101000a0380198251168184511680821785525050505050509050019150509081526020016040518091039020549050919050565b60005433600160a060020a039081169116146103c157600080fd5b600160a060020a03811615156103d657600080fd5b600054600160a060020a0380831691167f8be0079c531659141344cd1fd0a4f28419497f9722a3daafe3b4186f6b6457e060405160405180910390a36000805473ffffffffffffffffffffffffffffffffffffffff1916600160a060020a03929092169190911790555600a165627a7a723058209206190f87f382af3a403bf8c37aeef0a4a9ab733339adb73ff0acef65d3f00c0029",
  "source": "pragma solidity ^0.4.19;\n\n/**\n * CoinCrowd Exchange Rates. More info www.coincrowd.it\n */\n\n\n/**\n * @title Ownable\n * @dev The Ownable contract has an owner address, and provides basic authorization control\n * functions, this simplifies the implementation of \"user permissions\".\n */\ncontract Ownable {\n  address public owner;\n\n  event OwnershipTransferred(address indexed previousOwner, address indexed newOwner);\n\n  /**\n   * @dev The Ownable constructor sets the original `owner` of the contract to the sender\n   * account.\n   */\n  function Ownable() internal {\n    owner = msg.sender;\n  }\n\n  /**\n   * @dev Throws if called by any account other than the owner.\n   */\n  modifier onlyOwner() {\n    require(msg.sender == owner);\n    _;\n  }\n\n  /**\n   * @dev Allows the current owner to transfer control of the contract to a newOwner.\n   * @param newOwner The address to transfer ownership to.\n   */\n  function transferOwnership(address newOwner) onlyOwner public {\n    require(newOwner != address(0));\n    OwnershipTransferred(owner, newOwner);\n    owner = newOwner;\n  }\n}\n\n/**\n * @title Authorizable\n * @dev The Authorizable contract has authorized addresses, and provides basic authorization control\n * functions, this simplifies the implementation of \"multiple user permissions\".\n */\ncontract Authorizable is Ownable {\n  mapping(address => bool) public authorized;\n\n  event AuthorizationSet(address indexed addressAuthorized, bool indexed authorization);\n\n  /**\n   * @dev The Authorizable constructor sets the first `authorized` of the contract to the sender\n   * account.\n   */\n  function Authorizable() public {\n\tauthorized[msg.sender] = true;\n  }\n\n  /**\n   * @dev Throws if called by any account other than the authorized.\n   */\n  modifier onlyAuthorized() {\n    require(authorized[msg.sender]);\n    _;\n  }\n\n /**\n   * @dev Allows the current owner to set an authorization.\n   * @param addressAuthorized The address to change authorization.\n   */\n  function setAuthorized(address addressAuthorized, bool authorization) onlyOwner public {\n    AuthorizationSet(addressAuthorized, authorization);\n    authorized[addressAuthorized] = authorization;\n  }\n\n}\n\ncontract CoinCrowdExchangeRates is Ownable, Authorizable {\n    uint256 public constant decimals = 18;\n    mapping (string  => uint256) rate;\n\n    function readRate(string _currency) public view returns (uint256 oneEtherValue) {\n        return rate[_currency];\n    }\n\n    function writeRate(string _currency, uint256 oneEtherValue) onlyAuthorized public returns (bool result) {\n        rate[_currency] = oneEtherValue;\n        return true;\n    }\n}\n",
  "sourcePath": "/home/admin/EOL/contracts/CoinCrowdExchangeRates.sol",
  "compiler": {
    "name": "solc",
    "version": "0.4.19+commit.c4cbbb05.Emscripten.clang"
  },
  "schemaVersion": "2.0.0",
  "updatedAt": "2018-03-26T12:58:07.671Z"
}