{
  "contractName": "HumanStandardToken",
  "abi": [
    {
      "constant": false,
      "inputs": [
        {
          "name": "_spender",
          "type": "address"
        },
        {
          "name": "_value",
          "type": "uint256"
        }
      ],
      "name": "approve",
      "outputs": [
        {
          "name": "",
          "type": "bool"
        }
      ],
      "payable": false,
      "stateMutability": "nonpayable",
      "type": "function"
    },
    {
      "constant": true,
      "inputs": [],
      "name": "totalSupply",
      "outputs": [
        {
          "name": "",
          "type": "uint256"
        }
      ],
      "payable": false,
      "stateMutability": "view",
      "type": "function"
    },
    {
      "constant": true,
      "inputs": [],
      "name": "started",
      "outputs": [
        {
          "name": "",
          "type": "bool"
        }
      ],
      "payable": false,
      "stateMutability": "view",
      "type": "function"
    },
    {
      "constant": false,
      "inputs": [
        {
          "name": "_from",
          "type": "address"
        },
        {
          "name": "_to",
          "type": "address"
        },
        {
          "name": "_value",
          "type": "uint256"
        }
      ],
      "name": "transferFrom",
      "outputs": [
        {
          "name": "",
          "type": "bool"
        }
      ],
      "payable": false,
      "stateMutability": "nonpayable",
      "type": "function"
    },
    {
      "constant": false,
      "inputs": [
        {
          "name": "_spender",
          "type": "address"
        },
        {
          "name": "_subtractedValue",
          "type": "uint256"
        }
      ],
      "name": "decreaseApproval",
      "outputs": [
        {
          "name": "success",
          "type": "bool"
        }
      ],
      "payable": false,
      "stateMutability": "nonpayable",
      "type": "function"
    },
    {
      "constant": true,
      "inputs": [
        {
          "name": "_owner",
          "type": "address"
        }
      ],
      "name": "balanceOf",
      "outputs": [
        {
          "name": "balance",
          "type": "uint256"
        }
      ],
      "payable": false,
      "stateMutability": "view",
      "type": "function"
    },
    {
      "constant": false,
      "inputs": [
        {
          "name": "addressAuthorized",
          "type": "address"
        },
        {
          "name": "authorization",
          "type": "bool"
        }
      ],
      "name": "setAuthorized",
      "outputs": [],
      "payable": false,
      "stateMutability": "nonpayable",
      "type": "function"
    },
    {
      "constant": true,
      "inputs": [],
      "name": "owner",
      "outputs": [
        {
          "name": "",
          "type": "address"
        }
      ],
      "payable": false,
      "stateMutability": "view",
      "type": "function"
    },
    {
      "constant": false,
      "inputs": [
        {
          "name": "_to",
          "type": "address"
        },
        {
          "name": "_value",
          "type": "uint256"
        }
      ],
      "name": "transfer",
      "outputs": [
        {
          "name": "",
          "type": "bool"
        }
      ],
      "payable": false,
      "stateMutability": "nonpayable",
      "type": "function"
    },
    {
      "constant": true,
      "inputs": [
        {
          "name": "",
          "type": "address"
        }
      ],
      "name": "authorized",
      "outputs": [
        {
          "name": "",
          "type": "bool"
        }
      ],
      "payable": false,
      "stateMutability": "view",
      "type": "function"
    },
    {
      "constant": false,
      "inputs": [
        {
          "name": "_to",
          "type": "address"
        },
        {
          "name": "_value",
          "type": "uint256"
        },
        {
          "name": "_data",
          "type": "bytes"
        }
      ],
      "name": "transfer",
      "outputs": [
        {
          "name": "",
          "type": "bool"
        }
      ],
      "payable": false,
      "stateMutability": "nonpayable",
      "type": "function"
    },
    {
      "constant": false,
      "inputs": [],
      "name": "start",
      "outputs": [],
      "payable": false,
      "stateMutability": "nonpayable",
      "type": "function"
    },
    {
      "constant": false,
      "inputs": [
        {
          "name": "_spender",
          "type": "address"
        },
        {
          "name": "_addedValue",
          "type": "uint256"
        }
      ],
      "name": "increaseApproval",
      "outputs": [
        {
          "name": "success",
          "type": "bool"
        }
      ],
      "payable": false,
      "stateMutability": "nonpayable",
      "type": "function"
    },
    {
      "constant": true,
      "inputs": [
        {
          "name": "_owner",
          "type": "address"
        },
        {
          "name": "_spender",
          "type": "address"
        }
      ],
      "name": "allowance",
      "outputs": [
        {
          "name": "remaining",
          "type": "uint256"
        }
      ],
      "payable": false,
      "stateMutability": "view",
      "type": "function"
    },
    {
      "constant": false,
      "inputs": [
        {
          "name": "newOwner",
          "type": "address"
        }
      ],
      "name": "transferOwnership",
      "outputs": [],
      "payable": false,
      "stateMutability": "nonpayable",
      "type": "function"
    },
    {
      "constant": false,
      "inputs": [
        {
          "name": "_to",
          "type": "address"
        },
        {
          "name": "_value",
          "type": "uint256"
        },
        {
          "name": "_data",
          "type": "bytes"
        },
        {
          "name": "_custom_fallback",
          "type": "string"
        }
      ],
      "name": "transfer",
      "outputs": [
        {
          "name": "",
          "type": "bool"
        }
      ],
      "payable": false,
      "stateMutability": "nonpayable",
      "type": "function"
    },
    {
      "anonymous": false,
      "inputs": [
        {
          "indexed": true,
          "name": "from",
          "type": "address"
        },
        {
          "indexed": true,
          "name": "to",
          "type": "address"
        },
        {
          "indexed": false,
          "name": "value",
          "type": "uint256"
        },
        {
          "indexed": true,
          "name": "data",
          "type": "bytes"
        }
      ],
      "name": "Transfer",
      "type": "event"
    },
    {
      "anonymous": false,
      "inputs": [
        {
          "indexed": true,
          "name": "owner",
          "type": "address"
        },
        {
          "indexed": true,
          "name": "spender",
          "type": "address"
        },
        {
          "indexed": false,
          "name": "value",
          "type": "uint256"
        }
      ],
      "name": "Approval",
      "type": "event"
    },
    {
      "anonymous": false,
      "inputs": [
        {
          "indexed": true,
          "name": "from",
          "type": "address"
        },
        {
          "indexed": true,
          "name": "to",
          "type": "address"
        },
        {
          "indexed": false,
          "name": "value",
          "type": "uint256"
        }
      ],
      "name": "Transfer",
      "type": "event"
    },
    {
      "anonymous": false,
      "inputs": [],
      "name": "Start",
      "type": "event"
    },
    {
      "anonymous": false,
      "inputs": [
        {
          "indexed": true,
          "name": "addressAuthorized",
          "type": "address"
        },
        {
          "indexed": true,
          "name": "authorization",
          "type": "bool"
        }
      ],
      "name": "AuthorizationSet",
      "type": "event"
    },
    {
      "anonymous": false,
      "inputs": [
        {
          "indexed": true,
          "name": "previousOwner",
          "type": "address"
        },
        {
          "indexed": true,
          "name": "newOwner",
          "type": "address"
        }
      ],
      "name": "OwnershipTransferred",
      "type": "event"
    },
    {
      "constant": false,
      "inputs": [
        {
          "name": "_spender",
          "type": "address"
        },
        {
          "name": "_value",
          "type": "uint256"
        },
        {
          "name": "_extraData",
          "type": "bytes"
        }
      ],
      "name": "approveAndCall",
      "outputs": [
        {
          "name": "success",
          "type": "bool"
        }
      ],
      "payable": false,
      "stateMutability": "nonpayable",
      "type": "function"
    }
  ],
  "bytecode": "0x606060409081526002805460ff1990811690915560008054600160a060020a033316600160a060020a0319909116811782558152600160208190529290208054909116909117905561116b806100566000396000f3006060604052600436106100d75763ffffffff60e060020a600035041663095ea7b381146100dc57806318160ddd146101125780631f2698ab1461013757806323b872dd1461014a578063661884631461017257806370a0823114610194578063711bf9b2146101b35780638da5cb5b146101d9578063a9059cbb14610208578063b91816111461022a578063be45fd6214610249578063be9a6555146102ae578063cae9ca51146102c1578063d73dd62314610326578063dd62ed3e14610348578063f2fde38b1461036d578063f6368f8a1461038c575b600080fd5b34156100e757600080fd5b6100fe600160a060020a0360043516602435610433565b604051901515815260200160405180910390f35b341561011d57600080fd5b61012561047b565b60405190815260200160405180910390f35b341561014257600080fd5b6100fe610481565b341561015557600080fd5b6100fe600160a060020a036004358116906024351660443561048a565b341561017d57600080fd5b6100fe600160a060020a03600435166024356104d4565b341561019f57600080fd5b610125600160a060020a0360043516610515565b34156101be57600080fd5b6101d7600160a060020a03600435166024351515610530565b005b34156101e457600080fd5b6101ec6105af565b604051600160a060020a03909116815260200160405180910390f35b341561021357600080fd5b6100fe600160a060020a03600435166024356105be565b341561023557600080fd5b6100fe600160a060020a03600435166105ff565b341561025457600080fd5b6100fe60048035600160a060020a03169060248035919060649060443590810190830135806020601f8201819004810201604051908101604052818152929190602084018383808284375094965061061495505050505050565b34156102b957600080fd5b6101d7610656565b34156102cc57600080fd5b6100fe60048035600160a060020a03169060248035919060649060443590810190830135806020601f820181900481020160405190810160405281815292919060208401838380828437509496506106ac95505050505050565b341561033157600080fd5b6100fe600160a060020a03600435166024356107dc565b341561035357600080fd5b610125600160a060020a036004358116906024351661081d565b341561037857600080fd5b6101d7600160a060020a0360043516610848565b341561039757600080fd5b6100fe60048035600160a060020a03169060248035919060649060443590810190830135806020601f8201819004810201604051908101604052818152929190602084018383808284378201915050505050509190803590602001908201803590602001908080601f0160208091040260200160405190810160405281815292919060208401838380828437509496506108e395505050505050565b60025460009060ff168061045f5750600160a060020a03331660009081526001602052604090205460ff165b151561046a57600080fd5b610474838361092f565b9392505050565b60035481565b60025460ff1681565b60025460009060ff16806104b65750600160a060020a03331660009081526001602052604090205460ff165b15156104c157600080fd5b6104cc84848461099b565b949350505050565b60025460009060ff16806105005750600160a060020a03331660009081526001602052604090205460ff165b151561050b57600080fd5b6104748383610b3e565b600160a060020a031660009081526004602052604090205490565b60005433600160a060020a0390811691161461054b57600080fd5b80151582600160a060020a03167f5056a36abc1db1625034fdf114a164a0345b3ccf992fc1d51055e017375f473260405160405180910390a3600160a060020a03919091166000908152600160205260409020805460ff1916911515919091179055565b600054600160a060020a031681565b60025460009060ff16806105ea5750600160a060020a03331660009081526001602052604090205460ff165b15156105f557600080fd5b6104748383610c38565b60016020526000908152604090205460ff1681565b60025460009060ff16806106405750600160a060020a03331660009081526001602052604090205460ff165b151561064b57600080fd5b6104cc848484610c45565b60005433600160a060020a0390811691161461067157600080fd5b6002805460ff191660011790557f1b55ba3aa851a46be3b365aee5b5c140edd620d578922f3e8466d2cbd96f954b60405160405180910390a1565b60006106b88484610433565b5083600160a060020a03166040517f72656365697665417070726f76616c28616464726573732c75696e743235362c81527f62797465732900000000000000000000000000000000000000000000000000006020820152602601604051809103902060e060020a90043385856040518463ffffffff1660e060020a0281526004018084600160a060020a0316600160a060020a03168152602001838152602001828051906020019080838360005b8381101561077e578082015183820152602001610766565b50505050905090810190601f1680156107ab5780820380516001836020036101000a031916815260200191505b50935050505060006040518083038160008761646e5a03f19250505015156107d257600080fd5b5060019392505050565b60025460009060ff16806108085750600160a060020a03331660009081526001602052604090205460ff165b151561081357600080fd5b6104748383610caf565b600160a060020a03918216600090815260056020908152604080832093909416825291909152205490565b60005433600160a060020a0390811691161461086357600080fd5b600160a060020a038116151561087857600080fd5b600054600160a060020a0380831691167f8be0079c531659141344cd1fd0a4f28419497f9722a3daafe3b4186f6b6457e060405160405180910390a36000805473ffffffffffffffffffffffffffffffffffffffff1916600160a060020a0392909216919091179055565b60025460009060ff168061090f5750600160a060020a03331660009081526001602052604090205460ff165b151561091a57600080fd5b61092685858585610d53565b95945050505050565b600160a060020a03338116600081815260056020908152604080832094871680845294909152808220859055909291907f8c5be1e5ebec7d5bd14f71427d1e84f3dd0314c0f7b2291e5b200ac8c7c3b9259085905190815260200160405180910390a350600192915050565b6000600160a060020a03831615156109b257600080fd5b30600160a060020a031683600160a060020a0316141515156109d357600080fd5b600160a060020a0384166000908152600460205260409020548211156109f857600080fd5b600160a060020a0380851660009081526005602090815260408083203390941683529290522054821115610a2b57600080fd5b600160a060020a038416600090815260046020526040902054610a54908363ffffffff610ffa16565b600160a060020a038086166000908152600460205260408082209390935590851681522054610a89908363ffffffff61100c16565b600160a060020a03808516600090815260046020908152604080832094909455878316825260058152838220339093168252919091522054610ad1908363ffffffff610ffa16565b600160a060020a03808616600081815260056020908152604080832033861684529091529081902093909355908516917fddf252ad1be2c89b69c2b068fc378daa952ba7f163c4a11628f55a4df523b3ef9085905190815260200160405180910390a35060019392505050565b600160a060020a03338116600090815260056020908152604080832093861683529290529081205480831115610b9b57600160a060020a033381166000908152600560209081526040808320938816835292905290812055610bd2565b610bab818463ffffffff610ffa16565b600160a060020a033381166000908152600560209081526040808320938916835292905220555b600160a060020a0333811660008181526005602090815260408083209489168084529490915290819020547f8c5be1e5ebec7d5bd14f71427d1e84f3dd0314c0f7b2291e5b200ac8c7c3b925915190815260200160405180910390a35060019392505050565b600061047433848461101b565b60006104cc848484606060405190810160405280602481526020017f746f6b656e46616c6c6261636b28616464726573732c75696e743235362c627981526020017f74657329000000000000000000000000000000000000000000000000000000008152506108e3565b600160a060020a033381166000908152600560209081526040808320938616835292905290812054610ce7908363ffffffff61100c16565b600160a060020a0333811660008181526005602090815260408083209489168084529490915290819020849055919290917f8c5be1e5ebec7d5bd14f71427d1e84f3dd0314c0f7b2291e5b200ac8c7c3b92591905190815260200160405180910390a350600192915050565b6000600160a060020a0385161515610d6a57600080fd5b30600160a060020a031685600160a060020a031614151515610d8b57600080fd5b600160a060020a033316600090815260046020526040902054841115610db057600080fd5b600160a060020a033316600090815260046020526040902054610dd9908563ffffffff610ffa16565b600160a060020a033381166000908152600460205260408082209390935590871681522054610e0e908563ffffffff61100c16565b600160a060020a038616600090815260046020526040902055610e3085611137565b15610f4c5784600160a060020a03166000836040518082805190602001908083835b60208310610e715780518252601f199092019160209182019101610e52565b6001836020036101000a0380198251168184511617909252505050919091019250604091505051809103902060e060020a9004903387876040518563ffffffff1660e060020a0281526004018084600160a060020a0316600160a060020a03168152602001838152602001828051906020019080838360005b83811015610f02578082015183820152602001610eea565b50505050905090810190601f168015610f2f5780820380516001836020036101000a031916815260200191505b50935050505060006040518083038185886187965a03f150505050505b826040518082805190602001908083835b60208310610f7c5780518252601f199092019160209182019101610f5d565b6001836020036101000a0380198251168184511617909252505050919091019250604091505051809103902085600160a060020a031633600160a060020a03167fe19260aff97b920c7df27010903aeb9c8d2be5d310a2c67824cf3f15396e4c168760405190815260200160405180910390a4506001949350505050565b60008282111561100657fe5b50900390565b60008282018381101561047457fe5b6000600160a060020a038316151561103257600080fd5b30600160a060020a031683600160a060020a03161415151561105357600080fd5b600160a060020a03841660009081526004602052604090205482111561107857600080fd5b600160a060020a0384166000908152600460205260409020546110a1908363ffffffff610ffa16565b600160a060020a0380861660009081526004602052604080822093909355908516815220546110d6908363ffffffff61100c16565b600160a060020a03808516600081815260046020526040908190209390935591908616907fddf252ad1be2c89b69c2b068fc378daa952ba7f163c4a11628f55a4df523b3ef9085905190815260200160405180910390a35060019392505050565b6000903b11905600a165627a7a72305820e6f22204b1d5e3b68b7d0a17a0dee5e0f41b00598a3d3b7f46cf375593a222030029",
  "source": "pragma solidity ^0.4.19;\n\n/**\n * @title SafeMath\n * @dev Math operations with safety checks that throw on error\n */\nlibrary SafeMath {\n  function mul(uint256 a, uint256 b) internal pure returns (uint256) {\n    uint256 c = a * b;\n    assert(a == 0 || c / a == b);\n    return c;\n  }\n\n  function div(uint256 a, uint256 b) internal pure returns (uint256) {\n    // assert(b > 0); // Solidity automatically throws when dividing by 0\n    uint256 c = a / b;\n    // assert(a == b * c + a % b); // There is no case in which this doesn't hold\n    return c;\n  }\n\n  function sub(uint256 a, uint256 b) internal pure returns (uint256) {\n    assert(b <= a);\n    return a - b;\n  }\n\n  function add(uint256 a, uint256 b) internal pure returns (uint256) {\n    uint256 c = a + b;\n    assert(c >= a);\n    return c;\n  }\n}\n\n\n/**\n * @title Ownable\n * @dev The Ownable contract has an owner address, and provides basic authorization control\n * functions, this simplifies the implementation of \"user permissions\".\n */\ncontract Ownable {\n  address public owner;\n\n  event OwnershipTransferred(address indexed previousOwner, address indexed newOwner);\n\n  /**\n   * @dev The Ownable constructor sets the original `owner` of the contract to the sender\n   * account.\n   */\n  function Ownable() internal {\n    owner = msg.sender;\n  }\n\n  /**\n   * @dev Throws if called by any account other than the owner.\n   */\n  modifier onlyOwner() {\n    require(msg.sender == owner);\n    _;\n  }\n\n  /**\n   * @dev Allows the current owner to transfer control of the contract to a newOwner.\n   * @param newOwner The address to transfer ownership to.\n   */\n  function transferOwnership(address newOwner) onlyOwner public {\n    require(newOwner != address(0));\n    OwnershipTransferred(owner, newOwner);\n    owner = newOwner;\n  }\n}\n\n\n/**\n * @title Authorizable\n * @dev The Authorizable contract has authorized addresses, and provides basic authorization control\n * functions, this simplifies the implementation of \"multiple user permissions\".\n */\ncontract Authorizable is Ownable {\n  mapping(address => bool) public authorized;\n\n  event AuthorizationSet(address indexed addressAuthorized, bool indexed authorization);\n\n  /**\n   * @dev The Authorizable constructor sets the first `authorized` of the contract to the sender\n   * account.\n   */\n  function Authorizable() public {\n\tauthorized[msg.sender] = true;\n  }\n\n  /**\n   * @dev Throws if called by any account other than the authorized.\n   */\n  modifier onlyAuthorized() {\n    require(authorized[msg.sender]);\n    _;\n  }\n\n /**\n   * @dev Allows the current owner to set an authorization.\n   * @param addressAuthorized The address to change authorization.\n   */\n  function setAuthorized(address addressAuthorized, bool authorization) onlyOwner public {\n    AuthorizationSet(addressAuthorized, authorization);\n    authorized[addressAuthorized] = authorization;\n  }\n\n}\n\n\n/**\n * @title ERC20Basic\n * @dev Simpler version of ERC20 interface\n * @dev see https://github.com/ethereum/EIPs/issues/179\n */\ncontract ERC20Basic {\n  uint256 public totalSupply;\n  function balanceOf(address who) public constant returns (uint256);\n  function transfer(address to, uint256 value) public returns (bool);\n  event Transfer(address indexed from, address indexed to, uint256 value);\n}\n\n/**\n * @title ERC20 interface\n * @dev see https://github.com/ethereum/EIPs/issues/20\n */\ncontract ERC20 is ERC20Basic {\n  function allowance(address owner, address spender) public constant returns (uint256);\n  function transferFrom(address from, address to, uint256 value) public returns (bool);\n  function approve(address spender, uint256 value) public returns (bool);\n  event Approval(address indexed owner, address indexed spender, uint256 value);\n}\n\n/**\n * @title Basic token\n * @dev Basic version of StandardToken, with no allowances.\n */\ncontract BasicToken is ERC20Basic {\n  using SafeMath for uint256;\n\n  mapping(address => uint256) balances;\n\n  /**\n  * @dev transfer token from an address to another specified address\n  * @param _sender The address to transfer from.\n  * @param _to The address to transfer to.\n  * @param _value The amount to be transferred.\n  */\n  function transferFunction(address _sender, address _to, uint256 _value) internal returns (bool) {\n    require(_to != address(0));\n    require(_to != address(this));\n    require(_value <= balances[_sender]);\n\n    // SafeMath.sub will throw if there is not enough balance.\n    balances[_sender] = balances[_sender].sub(_value);\n    balances[_to] = balances[_to].add(_value);\n    Transfer(_sender, _to, _value);\n    return true;\n  }\n\n  /**\n  * @dev transfer token for a specified address (BasicToken transfer method)\n  */\n  function transfer(address _to, uint256 _value) public returns (bool) {\n\treturn transferFunction(msg.sender, _to, _value);\n  }\n\n  /**\n  * @dev Gets the balance of the specified address.\n  * @param _owner The address to query the the balance of.\n  * @return An uint256 representing the amount owned by the passed address.\n  */\n  function balanceOf(address _owner) public constant returns (uint256 balance) {\n    return balances[_owner];\n  }\n}\n\ncontract ERC223TokenCompatible is BasicToken {\n  using SafeMath for uint256;\n\n  event Transfer(address indexed from, address indexed to, uint256 value, bytes indexed data);\n\n  // Function that is called when a user or another contract wants to transfer funds .\n\tfunction transfer(address _to, uint256 _value, bytes _data, string _custom_fallback) public returns (bool success) {\n\t\trequire(_to != address(0));\n        require(_to != address(this));\n\t\trequire(_value <= balances[msg.sender]);\n\t\t// SafeMath.sub will throw if there is not enough balance.\n        balances[msg.sender] = balances[msg.sender].sub(_value);\n        balances[_to] = balances[_to].add(_value);\n\t\tif( isContract(_to) ) {\n\t\t\t_to.call.value(0)(bytes4(keccak256(_custom_fallback)), msg.sender, _value, _data);\n\t\t}\n\t\tTransfer(msg.sender, _to, _value, _data);\n\t\treturn true;\n\t}\n\n\t// Function that is called when a user or another contract wants to transfer funds .\n\tfunction transfer(address _to, uint256 _value, bytes _data) public returns (bool success) {\n\t\treturn transfer( _to, _value, _data, \"tokenFallback(address,uint256,bytes)\");\n\t}\n\n\t//assemble the given address bytecode. If bytecode exists then the _addr is a contract.\n\tfunction isContract(address _addr) private view returns (bool is_contract) {\n\t\tuint256 length;\n\t\tassembly {\n            //retrieve the size of the code on target address, this needs assembly\n            length := extcodesize(_addr)\n\t\t}\n\t\treturn (length>0);\n    }\n}\n\n\n/**\n * @title Standard ERC20 token\n *\n * @dev Implementation of the basic standard token.\n * @dev https://github.com/ethereum/EIPs/issues/20\n * @dev Based on code by FirstBlood: https://github.com/Firstbloodio/token/blob/master/smart_contract/FirstBloodToken.sol\n */\ncontract StandardToken is ERC20, BasicToken {\n\n  mapping (address => mapping (address => uint256)) internal allowed;\n\n\n  /**\n   * @dev Transfer tokens from one address to another\n   * @param _from address The address which you want to send tokens from\n   * @param _to address The address which you want to transfer to\n   * @param _value uint256 the amount of tokens to be transferred\n   */\n  function transferFrom(address _from, address _to, uint256 _value) public returns (bool) {\n    require(_to != address(0));\n    require(_to != address(this));\n    require(_value <= balances[_from]);\n    require(_value <= allowed[_from][msg.sender]);\n\n    balances[_from] = balances[_from].sub(_value);\n    balances[_to] = balances[_to].add(_value);\n    allowed[_from][msg.sender] = allowed[_from][msg.sender].sub(_value);\n    Transfer(_from, _to, _value);\n    return true;\n  }\n\n  /**\n   * @dev Approve the passed address to spend the specified amount of tokens on behalf of msg.sender.\n   *\n   * Beware that changing an allowance with this method brings the risk that someone may use both the old\n   * and the new allowance by unfortunate transaction ordering. One possible solution to mitigate this\n   * race condition is to first reduce the spender's allowance to 0 and set the desired value afterwards:\n   * https://github.com/ethereum/EIPs/issues/20#issuecomment-263524729\n   * @param _spender The address which will spend the funds.\n   * @param _value The amount of tokens to be spent.\n   */\n  function approve(address _spender, uint256 _value) public returns (bool) {\n    allowed[msg.sender][_spender] = _value;\n    Approval(msg.sender, _spender, _value);\n    return true;\n  }\n\n  /**\n   * @dev Function to check the amount of tokens that an owner allowed to a spender.\n   * @param _owner address The address which owns the funds.\n   * @param _spender address The address which will spend the funds.\n   * @return A uint256 specifying the amount of tokens still available for the spender.\n   */\n  function allowance(address _owner, address _spender) public constant returns (uint256 remaining) {\n    return allowed[_owner][_spender];\n  }\n\n  /**\n   * approve should be called when allowed[_spender] == 0. To increment\n   * allowed value is better to use this function to avoid 2 calls (and wait until\n   * the first transaction is mined)\n   * From MonolithDAO Token.sol\n   */\n  function increaseApproval (address _spender, uint _addedValue) public returns (bool success) {\n    allowed[msg.sender][_spender] = allowed[msg.sender][_spender].add(_addedValue);\n    Approval(msg.sender, _spender, allowed[msg.sender][_spender]);\n    return true;\n  }\n\n  function decreaseApproval (address _spender, uint _subtractedValue) public returns (bool success) {\n    uint oldValue = allowed[msg.sender][_spender];\n    if (_subtractedValue > oldValue) {\n      allowed[msg.sender][_spender] = 0;\n    } else {\n      allowed[msg.sender][_spender] = oldValue.sub(_subtractedValue);\n    }\n    Approval(msg.sender, _spender, allowed[msg.sender][_spender]);\n    return true;\n  }\n\n}\n\n\n/**\n * @title Startable\n * @dev Base contract which allows owner to implement an start mechanism without ever being stopped more.\n */\ncontract Startable is Ownable, Authorizable {\n  event Start();\n\n  bool public started = false;\n\n  /**\n   * @dev Modifier to make a function callable only when the contract is started.\n   */\n  modifier whenStarted() {\n\trequire( started || authorized[msg.sender] );\n    _;\n  }\n\n  /**\n   * @dev called by the owner to start, go to normal state\n   */\n  function start() onlyOwner public {\n    started = true;\n    Start();\n  }\n}\n\n/**\n * @title Startable token\n *\n * @dev StandardToken modified with startable transfers.\n **/\n\ncontract StartToken is Startable, ERC223TokenCompatible, StandardToken {\n\n  function transfer(address _to, uint256 _value) public whenStarted returns (bool) {\n    return super.transfer(_to, _value);\n  }\n  function transfer(address _to, uint256 _value, bytes _data) public whenStarted returns (bool) {\n    return super.transfer(_to, _value, _data);\n  }\n  function transfer(address _to, uint256 _value, bytes _data, string _custom_fallback) public whenStarted returns (bool) {\n    return super.transfer(_to, _value, _data, _custom_fallback);\n  }\n\n  function transferFrom(address _from, address _to, uint256 _value) public whenStarted returns (bool) {\n    return super.transferFrom(_from, _to, _value);\n  }\n\n  function approve(address _spender, uint256 _value) public whenStarted returns (bool) {\n    return super.approve(_spender, _value);\n  }\n\n  function increaseApproval(address _spender, uint _addedValue) public whenStarted returns (bool success) {\n    return super.increaseApproval(_spender, _addedValue);\n  }\n\n  function decreaseApproval(address _spender, uint _subtractedValue) public whenStarted returns (bool success) {\n    return super.decreaseApproval(_spender, _subtractedValue);\n  }\n}\n\ncontract HumanStandardToken is StandardToken, StartToken {\n    /* Approves and then calls the receiving contract */\n    function approveAndCall(address _spender, uint256 _value, bytes _extraData) public returns (bool success) {\n        approve(_spender, _value);\n        require(_spender.call(bytes4(keccak256(\"receiveApproval(address,uint256,bytes)\")), msg.sender, _value, _extraData));\n        return true;\n    }\n}\n\ncontract BurnToken is StandardToken {\n\n    event Burn(address indexed burner, uint256 value);\n\n    /**\n     * @dev Function to burn tokens.\n     * @param _burner The address of token holder.\n     * @param _value The amount of token to be burned.\n     */\n    function burnFunction(address _burner, uint256 _value) internal returns (bool) {\n        require(_value > 0);\n\t\trequire(_value <= balances[_burner]);\n        // no need to require value <= totalSupply, since that would imply the\n        // sender's balance is greater than the totalSupply, which *should* be an assertion failure\n\n        balances[_burner] = balances[_burner].sub(_value);\n        totalSupply = totalSupply.sub(_value);\n        Burn(_burner, _value);\n\t\treturn true;\n    }\n\n    /**\n     * @dev Burns a specific amount of tokens.\n     * @param _value The amount of token to be burned.\n     */\n\tfunction burn(uint256 _value) public returns(bool) {\n        return burnFunction(msg.sender, _value);\n    }\n\n\t/**\n\t* @dev Burns tokens from one address\n\t* @param _from address The address which you want to burn tokens from\n\t* @param _value uint256 the amount of tokens to be burned\n\t*/\n\tfunction burnFrom(address _from, uint256 _value) public returns (bool) {\n\t\trequire(_value <= allowed[_from][msg.sender]); // check if it has the budget allowed\n\t\tburnFunction(_from, _value);\n\t\tallowed[_from][msg.sender] = allowed[_from][msg.sender].sub(_value);\n\t\treturn true;\n\t}\n}\n\ncontract OriginToken is Authorizable, BasicToken, BurnToken {\n\n    /**\n     * @dev transfer token from tx.orgin to a specified address (onlyAuthorized contract)\n     */\n    function originTransfer(address _to, uint256 _value) onlyAuthorized public returns (bool) {\n\t    return transferFunction(tx.origin, _to, _value);\n    }\n\n    /**\n     * @dev Burns a specific amount of tokens from tx.orgin. (onlyAuthorized contract)\n     * @param _value The amount of token to be burned.\n     */\n\tfunction originBurn(uint256 _value) onlyAuthorized public returns(bool) {\n        return burnFunction(tx.origin, _value);\n    }\n}\n\ncontract Token is ERC223TokenCompatible, StandardToken, StartToken, HumanStandardToken, BurnToken, OriginToken {\n    uint8 public decimals = 18;\n\n    string public name = \"EolCoin\";\n\n    string public symbol = \"EOL\";\n\n    uint256 public initialSupply;\n\n    function Token() public {\n        totalSupply = 100000000 * 10 ** uint(decimals);\n\n        initialSupply = totalSupply;\n\n        balances[msg.sender] = totalSupply;\n    }\n}\n",
  "sourcePath": "/home/admin/EOL/contracts/Token.sol",
  "compiler": {
    "name": "solc",
    "version": "0.4.19+commit.c4cbbb05.Emscripten.clang"
  },
  "schemaVersion": "2.0.0",
  "updatedAt": "2018-03-26T12:58:05.859Z"
}