{
  "contractName": "RC",
  "abi": [
    {
      "constant": true,
      "inputs": [],
      "name": "endTime",
      "outputs": [
        {
          "name": "",
          "type": "uint256"
        }
      ],
      "payable": false,
      "stateMutability": "view",
      "type": "function"
    },
    {
      "constant": true,
      "inputs": [],
      "name": "soldTokens",
      "outputs": [
        {
          "name": "",
          "type": "uint256"
        }
      ],
      "payable": false,
      "stateMutability": "view",
      "type": "function"
    },
    {
      "constant": true,
      "inputs": [],
      "name": "startTime",
      "outputs": [
        {
          "name": "",
          "type": "uint256"
        }
      ],
      "payable": false,
      "stateMutability": "view",
      "type": "function"
    },
    {
      "constant": true,
      "inputs": [],
      "name": "remainingTokens",
      "outputs": [
        {
          "name": "",
          "type": "uint256"
        }
      ],
      "payable": false,
      "stateMutability": "view",
      "type": "function"
    },
    {
      "constant": true,
      "inputs": [],
      "name": "oneTokenInEurWei",
      "outputs": [
        {
          "name": "",
          "type": "uint256"
        }
      ],
      "payable": false,
      "stateMutability": "view",
      "type": "function"
    },
    {
      "inputs": [
        {
          "name": "_tokenSaleContract",
          "type": "address"
        },
        {
          "name": "_oneTokenInEurWei",
          "type": "uint256"
        },
        {
          "name": "_remainingTokens",
          "type": "uint256"
        },
        {
          "name": "_startTime",
          "type": "uint256"
        },
        {
          "name": "_endTime",
          "type": "uint256"
        }
      ],
      "payable": false,
      "stateMutability": "nonpayable",
      "type": "constructor"
    },
    {
      "payable": true,
      "stateMutability": "payable",
      "type": "fallback"
    },
    {
      "anonymous": false,
      "inputs": [
        {
          "indexed": true,
          "name": "buyer",
          "type": "address"
        },
        {
          "indexed": false,
          "name": "trackID",
          "type": "bytes"
        },
        {
          "indexed": false,
          "name": "value",
          "type": "uint256"
        },
        {
          "indexed": false,
          "name": "soldToken",
          "type": "uint256"
        },
        {
          "indexed": false,
          "name": "valueTokenInEurWei",
          "type": "uint256"
        }
      ],
      "name": "BuyRC",
      "type": "event"
    },
    {
      "constant": false,
      "inputs": [
        {
          "name": "_newStart",
          "type": "uint256"
        },
        {
          "name": "_newEnd",
          "type": "uint256"
        }
      ],
      "name": "setTime",
      "outputs": [],
      "payable": false,
      "stateMutability": "nonpayable",
      "type": "function"
    }
  ],
  "bytecode": "0x6060604052341561000f57600080fd5b60405160a0806106b28339810160405280805191906020018051919060200180519190602001805191906020018051915050600160a060020a038516151561005657600080fd5b83151561006257600080fd5b82151561006e57600080fd5b60008054600160a060020a031916600160a060020a038781169190911791829055166366b52b936040518163ffffffff167c0100000000000000000000000000000000000000000000000000000000028152600401600060405180830381600087803b15156100dc57600080fd5b6102c65a03f115156100ed57600080fd5b505060006003555060048390556005849055610116828264010000000061034161012082021704565b5050505050610246565b8115156101ab5760008054600160a060020a0316906378e9792590604051602001526040518163ffffffff167c0100000000000000000000000000000000000000000000000000000000028152600401602060405180830381600087803b151561018957600080fd5b6102c65a03f1151561019a57600080fd5b5050506040518051600155506101b1565b60018290555b80151561023c5760008054600160a060020a031690633197cbb690604051602001526040518163ffffffff167c0100000000000000000000000000000000000000000000000000000000028152600401602060405180830381600087803b151561021a57600080fd5b6102c65a03f1151561022b57600080fd5b505050604051805160025550610242565b60028190555b5050565b61045d806102556000396000f30060606040526004361061005e5763ffffffff60e060020a6000350416633197cbb681146101d05780635ed9ebfc146101f557806378e9792514610208578063a0355eca1461021b578063bf58390314610236578063c6a2573d14610249575b600154600090421161006f57600080fd5b600254421061007d57600080fd5b6004546000901161008d57600080fd5b6000809054906101000a9004600160a060020a0316600160a060020a0316634769ed8f343360055460045460006040516020015260405160e060020a63ffffffff8716028152600160a060020a039093166004840152602483019190915260448201526064016020604051808303818588803b151561010b57600080fd5b6125ee5a03f1151561011c57600080fd5b50505050604051805160045490925061013c91508263ffffffff61025c16565b600455600354610152908263ffffffff61026e16565b60038190555033600160a060020a03167f99d83b77a8a0fbdd924ad497f587bec4b963b71e8925e31a2baed1fbce2a16526000363485600554604051602081018490526040810183905260608101829052608080825281018590528060a081018787808284378201915050965050505050505060405180910390a250005b34156101db57600080fd5b6101e3610284565b60405190815260200160405180910390f35b341561020057600080fd5b6101e361028a565b341561021357600080fd5b6101e3610290565b341561022657600080fd5b610234600435602435610296565b005b341561024157600080fd5b6101e3610335565b341561025457600080fd5b6101e361033b565b60008282111561026857fe5b50900390565b60008282018381101561027d57fe5b9392505050565b60025481565b60035481565b60015481565b60008054600160a060020a031690638da5cb5b90604051602001526040518163ffffffff1660e060020a028152600401602060405180830381600087803b15156102df57600080fd5b6102c65a03f115156102f057600080fd5b50505060405180519050600160a060020a031633600160a060020a031614151561031957600080fd5b81156103255760018290555b80156103315760028190555b5050565b60045481565b60055481565b8115156103b35760008054600160a060020a0316906378e9792590604051602001526040518163ffffffff1660e060020a028152600401602060405180830381600087803b151561039157600080fd5b6102c65a03f115156103a257600080fd5b5050506040518051600155506103b9565b60018290555b80151561042b5760008054600160a060020a031690633197cbb690604051602001526040518163ffffffff1660e060020a028152600401602060405180830381600087803b151561040957600080fd5b6102c65a03f1151561041a57600080fd5b505050604051805160025550610331565b600255505600a165627a7a72305820ed5354b90993249a73ae451bef10c4bc6cd8cf0aa0184e8ac7452bb68398e98e0029",
  "source": "pragma solidity ^0.4.19;\n\n/**\n * @title SafeMath\n * @dev Math operations with safety checks that throw on error\n */\nlibrary SafeMath {\n  function mul(uint256 a, uint256 b) internal pure returns (uint256) {\n    uint256 c = a * b;\n    assert(a == 0 || c / a == b);\n    return c;\n  }\n\n  function div(uint256 a, uint256 b) internal pure returns (uint256) {\n    // assert(b > 0); // Solidity automatically throws when dividing by 0\n    uint256 c = a / b;\n    // assert(a == b * c + a % b); // There is no case in which this doesn't hold\n    return c;\n  }\n\n  function sub(uint256 a, uint256 b) internal pure returns (uint256) {\n    assert(b <= a);\n    return a - b;\n  }\n\n  function add(uint256 a, uint256 b) internal pure returns (uint256) {\n    uint256 c = a + b;\n    assert(c >= a);\n    return c;\n  }\n}\n\n\n/**\n * @title Ownable\n * @dev The Ownable contract has an owner address, and provides basic authorization control\n * functions, this simplifies the implementation of \"user permissions\".\n */\ncontract Ownable {\n  address public owner;\n\n  event OwnershipTransferred(address indexed previousOwner, address indexed newOwner);\n\n  /**\n   * @dev The Ownable constructor sets the original `owner` of the contract to the sender\n   * account.\n   */\n  function Ownable() internal {\n    owner = msg.sender;\n  }\n\n  /**\n   * @dev Throws if called by any account other than the owner.\n   */\n  modifier onlyOwner() {\n    require(msg.sender == owner);\n    _;\n  }\n\n  /**\n   * @dev Allows the current owner to transfer control of the contract to a newOwner.\n   * @param newOwner The address to transfer ownership to.\n   */\n  function transferOwnership(address newOwner) onlyOwner public {\n    require(newOwner != address(0));\n    OwnershipTransferred(owner, newOwner);\n    owner = newOwner;\n  }\n}\n\ncontract tokenInterface {\n\tfunction balanceOf(address _owner) public constant returns (uint256 balance);\n\tfunction transfer(address _to, uint256 _value) public returns (bool);\n}\n\ncontract rateInterface {\n    function readRate(string _currency) public view returns (uint256 oneEtherValue);\n}\n\ncontract RC {\n    using SafeMath for uint256;\n    TokenSale tokenSaleContract;\n    uint256 public startTime;\n    uint256 public endTime;\n\n    uint256 public soldTokens;\n    uint256 public remainingTokens;\n\n    uint256 public oneTokenInEurWei;\n\n    function RC(address _tokenSaleContract, uint256 _oneTokenInEurWei, uint256 _remainingTokens,  uint256 _startTime , uint256 _endTime ) public {\n        require ( _tokenSaleContract != 0 );\n        require ( _oneTokenInEurWei != 0 );\n        require( _remainingTokens != 0 );\n\n        tokenSaleContract = TokenSale(_tokenSaleContract);\n\n        tokenSaleContract.addMeByRC();\n\n        soldTokens = 0;\n        remainingTokens = _remainingTokens;\n        oneTokenInEurWei = _oneTokenInEurWei;\n\n        setTimeRC( _startTime, _endTime );\n    }\n\n    function setTimeRC(uint256 _startTime, uint256 _endTime ) internal {\n        if( _startTime == 0 ) {\n            startTime = tokenSaleContract.startTime();\n        } else {\n            startTime = _startTime;\n        }\n        if( _endTime == 0 ) {\n            endTime = tokenSaleContract.endTime();\n        } else {\n            endTime = _endTime;\n        }\n    }\n\n    modifier onlyTokenSaleOwner() {\n        require(msg.sender == tokenSaleContract.owner() );\n        _;\n    }\n\n    function setTime(uint256 _newStart, uint256 _newEnd) public onlyTokenSaleOwner {\n        if ( _newStart != 0 ) startTime = _newStart;\n        if ( _newEnd != 0 ) endTime = _newEnd;\n    }\n\n    event BuyRC(address indexed buyer, bytes trackID, uint256 value, uint256 soldToken, uint256 valueTokenInEurWei );\n\n    function () public payable {\n        require( now > startTime );\n        require( now < endTime );\n        //require( msg.value >= 1*10**18); //1 Ether\n        require( remainingTokens > 0 );\n\n        uint256 tokenAmount = tokenSaleContract.buyFromRC.value(msg.value)(msg.sender, oneTokenInEurWei, remainingTokens);\n\n        remainingTokens = remainingTokens.sub(tokenAmount);\n        soldTokens = soldTokens.add(tokenAmount);\n\n        BuyRC( msg.sender, msg.data, msg.value, tokenAmount, oneTokenInEurWei );\n    }\n}\n\ncontract TokenSale is Ownable {\n    using SafeMath for uint256;\n    tokenInterface public tokenContract;\n    rateInterface public rateContract;\n\n    address public wallet;\n    address public advisor;\n    uint256 public advisorFee; // 1 = 0,1%\n\n\tuint256 public constant decimals = 18;\n\n    uint256 public endTime;  // seconds from 1970-01-01T00:00:00Z\n    uint256 public startTime;  // seconds from 1970-01-01T00:00:00Z\n\n    mapping(address => bool) public rc;\n\n\n    function TokenSale(address _tokenAddress, address _rateAddress, uint256 _startTime, uint256 _endTime) public {\n        tokenContract = tokenInterface(_tokenAddress);\n        rateContract = rateInterface(_rateAddress);\n        setTime(_startTime, _endTime);\n        wallet = msg.sender;\n        advisor = msg.sender;\n        advisorFee = 0 * 10**3;\n    }\n\n    function tokenValueInEther(uint256 _oneTokenInEurWei) public view returns(uint256 tknValue) {\n        uint256 oneEtherInEur = rateContract.readRate(\"eur\");\n        tknValue = _oneTokenInEurWei.mul(10 ** uint256(decimals)).div(oneEtherInEur);\n        return tknValue;\n    }\n\n    modifier isBuyable() {\n        require( now > startTime ); // check if started\n        require( now < endTime ); // check if ended\n        require( msg.value > 0 );\n\n\t\tuint256 remainingTokens = tokenContract.balanceOf(this);\n        require( remainingTokens > 0 ); // Check if there are any remaining tokens\n        _;\n    }\n\n    event Buy(address buyer, uint256 value, address indexed ambassador);\n\n    modifier onlyRC() {\n        require( rc[msg.sender] ); //check if is an authorized rcContract\n        _;\n    }\n\n    function buyFromRC(address _buyer, uint256 _rcTokenValue, uint256 _remainingTokens) onlyRC isBuyable public payable returns(uint256) {\n        uint256 oneToken = 10 ** uint256(decimals);\n        uint256 tokenValue = tokenValueInEther(_rcTokenValue);\n        uint256 tokenAmount = msg.value.mul(oneToken).div(tokenValue);\n        address _ambassador = msg.sender;\n\n\n        uint256 remainingTokens = tokenContract.balanceOf(this);\n        if ( _remainingTokens < remainingTokens ) {\n            remainingTokens = _remainingTokens;\n        }\n\n        if ( remainingTokens < tokenAmount ) {\n            uint256 refund = (tokenAmount - remainingTokens).mul(tokenValue).div(oneToken);\n            tokenAmount = remainingTokens;\n            forward(msg.value-refund);\n\t\t\tremainingTokens = 0; // set remaining token to 0\n             _buyer.transfer(refund);\n        } else {\n\t\t\tremainingTokens = remainingTokens.sub(tokenAmount); // update remaining token without bonus\n            forward(msg.value);\n        }\n\n        tokenContract.transfer(_buyer, tokenAmount);\n        Buy(_buyer, tokenAmount, _ambassador);\n\n        return tokenAmount;\n    }\n\n    function forward(uint256 _amount) internal {\n        uint256 advisorAmount = _amount.mul(advisorFee).div(10**3);\n        uint256 walletAmount = _amount - advisorAmount;\n        advisor.transfer(advisorAmount);\n        wallet.transfer(walletAmount);\n    }\n\n    event NewRC(address contr);\n\n    function addMeByRC() public {\n        require(tx.origin == owner);\n\n        rc[ msg.sender ]  = true;\n\n        NewRC(msg.sender);\n    }\n\n    function setTime(uint256 _newStart, uint256 _newEnd) public onlyOwner {\n        if ( _newStart != 0 ) startTime = _newStart;\n        if ( _newEnd != 0 ) endTime = _newEnd;\n    }\n\n    modifier onlyOwnerOrRC() {\n        require( rc[msg.sender] || msg.sender == owner );\n        _;\n    }\n\n    function withdraw(address to, uint256 value) public onlyOwner {\n        to.transfer(value);\n    }\n\n    function withdrawTokens(address to, uint256 value) public onlyOwnerOrRC returns (bool) {\n        return tokenContract.transfer(to, value);\n    }\n\n    function setTokenContract(address _tokenContract) public onlyOwner {\n        tokenContract = tokenInterface(_tokenContract);\n    }\n\n    function setWalletAddress(address _wallet) public onlyOwner {\n        wallet = _wallet;\n    }\n\n    function setAdvisorAddress(address _advisor) public onlyOwner {\n            advisor = _advisor;\n    }\n\n    function setAdvisorFee(uint256 _advisorFee) public onlyOwner {\n            advisorFee = _advisorFee;\n    }\n\n    function setRateContract(address _rateAddress) public onlyOwner {\n        rateContract = rateInterface(_rateAddress);\n    }\n\n    function () public payable {\n        revert();\n    }\n\n    function newRC(uint256 _oneTokenInEurWei, uint256 _remainingTokens) onlyOwner public {\n        new RC(this, _oneTokenInEurWei, _remainingTokens, 0, 0 );\n    }\n}\n\ncontract PrivateSale {\n    using SafeMath for uint256;\n    TokenSale tokenSaleContract;\n    uint256 public startTime;\n    uint256 internal constant weekInSeconds = 604800; // seconds in a week\n    uint256 public endTime;\n\n    uint256 public soldTokens;\n    uint256 public remainingTokens;\n\n    uint256 public oneTokenInEurWei;\n\n    function PrivateSale(address _tokenSaleContract, uint256 _oneTokenInEurWei, uint256 _remainingTokens,  uint256 _startTime , uint256 _endTime ) public {\n        require ( _tokenSaleContract != 0 );\n        require ( _oneTokenInEurWei != 0 );\n        require( _remainingTokens != 0 );\n\n        tokenSaleContract = TokenSale(_tokenSaleContract);\n\n        tokenSaleContract.addMeByRC();\n\n        soldTokens = 0;\n        remainingTokens = _remainingTokens;\n        oneTokenInEurWei = _oneTokenInEurWei;\n\n        setTimeRC( _startTime, _endTime );\n    }\n\n    function setTimeRC(uint256 _startTime, uint256 _endTime ) internal {\n        if( _startTime == 0 ) {\n            startTime = tokenSaleContract.startTime();\n        } else {\n            startTime = _startTime;\n        }\n        if( _endTime == 0 ) {\n            endTime = tokenSaleContract.endTime();\n        } else {\n            endTime = _endTime;\n        }\n    }\n\n    modifier onlyTokenSaleOwner() {\n        require(msg.sender == tokenSaleContract.owner() );\n        _;\n    }\n\n    function setTime(uint256 _newStart, uint256 _newEnd) public onlyTokenSaleOwner {\n        if ( _newStart != 0 ) startTime = _newStart;\n        if ( _newEnd != 0 ) endTime = _newEnd;\n    }\n\n    event BuyRC(address indexed buyer, bytes trackID, uint256 value, uint256 soldToken, uint256 valueTokenInEurWei );\n\n    function () public payable {\n        require( now > startTime );\n        require( now < endTime );\n        //require( msg.value >= 1*10**18); //1 Ether\n        require( remainingTokens > 0 );\n\n        uint256 tokenAmount = tokenSaleContract.buyFromRC.value(msg.value)(msg.sender, oneTokenInEurWei, remainingTokens);\n\n        remainingTokens = remainingTokens.sub(tokenAmount);\n        soldTokens = soldTokens.add(tokenAmount);\n\n        uint256 bonusRate;\n        if( now > startTime + weekInSeconds*0  ) { bonusRate = 1000; }\n        if( now > startTime + weekInSeconds*1  ) { bonusRate = 800; }\n        if( now > startTime + weekInSeconds*2  ) { bonusRate = 600; }\n        if( now > startTime + weekInSeconds*3  ) { bonusRate = 400; }\n        if( now > startTime + weekInSeconds*4  ) { bonusRate = 200; }\n        if( now > startTime + weekInSeconds*5  ) { bonusRate = 0; }\n\n        tokenSaleContract.withdrawTokens(msg.sender, tokenAmount.mul( bonusRate ).div(10**4) );\n\n        BuyRC( msg.sender, msg.data, msg.value, tokenAmount, oneTokenInEurWei );\n    }\n}\n",
  "sourcePath": "/home/admin/EOL/contracts/TokenSale.sol",
  "compiler": {
    "name": "solc",
    "version": "0.4.19+commit.c4cbbb05.Emscripten.clang"
  },
  "schemaVersion": "2.0.0",
  "updatedAt": "2018-03-26T12:58:05.898Z"
}